:020000040000FA
:020000001E28B8
:08000800F000030E8301F1007A
:100010000A08F2008A010408F3000C1910281528B8
:100020000C1102308606FF30F40073088400720859
:100030008A00710E8300F00E700E09008316BC302A
:1000400085000130860087308100831200308500F2
:1000500001308600831600309F001C309B00831205
:10006000831660308F000F1D33288312861465209D
:100070008610652006156520061165208F018E010A
:1000800034309000F4309600243095000B30970007
:100090000C110B1783160C158312F4018B17101417
:1000A000741C5028F4015028503084001230800015
:1000B000840A34308000503084000008A0005130A1
:1000C00084000008A100000008001130F900883009
:1000D000FA008F30FB00FB0B6B28FA0B6928F90B39
:1000E000672808000739F6000310F60DF60D760DA7
:1000F00041389F000530F500F50B7C280C131F15C7
:100100000C1F80280C131E08F80083161E0883128B
:10011000F7000800903098008316243098001930BA
:100120009900831208008C1E932818199C2898188F
:100130009F281A08FC0008001A08AA309A281812EA
:100140001816BB309A28FD008316981CA528831228
:060150007D089900080083
:02400E00103F61
:02401000FC3F73
:00000001FF
