:020000040000FA
:020000001E28B8
:08000800F000030E8301F1007A
:100010000A08F2008A010408F3000C1910281528B8
:100020000C1102308606FF30F40073088400720859
:100030008A00710E8300F00E700E09008316BC302A
:1000400085000130860087308100831200308500F2
:1000500001308600831600309F001C309B00831205
:10006000831660308F000F1D3328831204308220E6
:10007000F81B3E28861400000612422806160000CF
:100080008610422802308220F81B4A2806150000FC
:100090008611362806150000861136288F018E013C
:1000A00034309000F4309600243095000B309700E7
:1000B0000C110B1783160C158312F4018B171014F7
:1000C000741C6028F40160285030840012308000D5
:1000D000840A34308000503084000008A000513081
:1000E00084000008A100000008001130F9008830E9
:1000F000FA008F30FB00FB0B7B28FA0B7928F90BF9
:10010000772808000739F6000310F60DF60D760D76
:1001100041389F000530F500F50B8C280C131F1596
:100120000C1F90280C131E08F80083161E0883125B
:10013000F70008009030980083162430980019309A
:100140009900831208008C1EA3281819AC2898184F
:10015000AF281A08FC0008001A08AA30AA281812AA
:100160001816BB30AA28FD008316981CB5288312E8
:060170007D089900080063
:02400E00103F61
:02401000FC3F73
:00000001FF
