:020000040000FA
:020000001E28B8
:08000800F000030E8301F1007A
:100010000A08F2008A010408F3000C1910281528B8
:100020000C1102308606FF30F40073088400720859
:100030008A00710E8300F00E700E09008316BC302A
:1000400085000130860087308100831200308500F2
:1000500001308600831600309F001C309B00831205
:10006000831660308F000F1D3328831204308820E0
:10007000F81B3D2886100000402886140000402808
:1000800003308820F81B4728061100004A2806156F
:1000900000004A2802308820F81B512886110000F1
:1000A00036288615000036288F018E0134309000E6
:1000B000F4309600243095000B3097000C110B178C
:1000C00083160C158312F4018B171014741C662808
:1000D000F40166285030840012308000840A3430E5
:1000E0008000503084000008A000513084000008D7
:1000F000A100000008001130F9008830FA008F30AC
:10010000FB00FB0B8128FA0B7F28F90B7D280800E8
:100110000739F6000310F60DF60D760D41389F00F5
:100120000530F500F50B92280C131F150C1F9628AF
:100130000C131E08F80083161E088312F70008002F
:10014000903098008316243098001930990083125B
:1001500008008C1EA9281819B2289818B5281A0862
:10016000FC0008001A08AA30B02818121816BB3074
:10017000B028FD008316981CBB2883127D089900C7
:02018000080075
:02400E00103F61
:02401000FC3F73
:00000001FF
